:060000000A128A11EB2F29
:100B5000831603138601870183120313870186011D
:100B600008003F3406345B344F3466346D347D34D2
:100B700007347F346F34603400347E088A007F0885
:100B800082000A128A11BD250A128A118000840A85
:100B900004087D0603190034FF0A0319FE0AC12D5B
:100BA000700C83120313031C071003180714720C34
:100BB000031C871003188714740C031C07110318F7
:100BC0000715760C031C8711031887150800700899
:100BD00071040319EC2DED2D1C2EF401F40AFB2DEC
:100BE00001300310F00DF10DFF3E031DF12D01301A
:100BF000FF007F08F407F11FFE2DFF2DF02D710877
:100C00007302031D052E70087202031C082E092EA4
:100C10000F2E7008F2027108031CF303F302013077
:100C20000310F10CF00CFF3E031D102E0130F402F6
:100C3000031D1B2E1C2EFF2D7308F1007208F000FF
:100C40000800F401F501700871040319282E292EFB
:100C5000602EF601F60A372E01300310F00DF10D6B
:100C6000FF3E031D2D2E0130FF007F08F607F11F08
:100C70003A2E3B2E2C2E01300310F40DF50DFF3EC5
:100C8000031D3C2E71087302031D482E700872026A
:100C9000031C4B2E4C2E532E7008F2027108031CBD
:100CA000F303F302741401300310F10CF00CFF3E57
:100CB000031D542E0130F602031D5F2E602E3B2EC5
:100CC0007508F1007408F00008000A128A11A825BE
:100CD0000A128A116030F8000030F9000A128A11F5
:100CE00078270A128A110030F000F1000130F2007A
:100CF0000030F3000130F4000030F5000130F60060
:100D00000030F7000A128A11D0250A128A118312C4
:100D100003132D08203E8400831300088600413011
:100D2000FD00EE30FC00FC0B932EFD0B932E00001B
:100D30000130F0000030F1000030F200F30001302B
:100D4000F4000030F5000130F6000030F7000A1220
:100D50008A11D0250A128A11831203132C08203E0F
:100D600084008313000886006A2E0A128A11002864
:100D7000F501F31FBC2EBD2EC42EF209F309F20AB1
:100D80000319F30AF501F50AF11FC72EC82ECD2E5F
:100D9000F009F109F00A0319F10A70087104031946
:100DA000D22ED32E022FF401F40AE12E01300310CB
:100DB000F00DF10DFF3E031DD72E0130FF007F081F
:100DC000F407F11FE42EE52ED62E71087302031DE1
:100DD000EB2E70087202031CEE2EEF2EF52E70081B
:100DE000F2027108031CF303F30201300310F10C4B
:100DF000F00CFF3E031DF62E0130F402031D012FFF
:100E0000022FE52E75080319062F072F0C2FF20964
:100E1000F309F20A0319F30A7308F1007208F000EB
:100E20000800F501F11F152F162F1D2FF009F109EC
:100E3000F00A0319F10AF501F50AF31F202F212FFB
:100E40002A2FF209F309F20A0319F30A0130FF000D
:100E50007F08F506F601F701700871040319312FB8
:100E6000322F692FF401F40A402F01300310F00DE6
:100E7000F10DFF3E031D362F0130FF007F08F40700
:100E8000F11F432F442F352F01300310F60DF70DBE
:100E9000FF3E031D452F71087302031D512F70087B
:100EA0007202031C542F552F5C2F7008F202710838
:100EB000031CF303F302761401300310F10CF00C61
:100EC000FF3E031D5D2F0130F402031D682F692FC3
:100ED000442F750803196D2F6E2F732FF609F7092C
:100EE000F60A0319F70A7708F1007608F0000800FF
:100EF0006430F0000030F1007908F3007808F20067
:100F00000A128A1121260A128A1170088312031309
:100F1000B1000A30F0000030F1003108FA00FB01A6
:100F20007A08F2007B08F3000A128A1111270A12CC
:100F30008A11700883120313B0000A30F0000030E9
:100F4000F1003108FA00FB017A08F2007B08F30097
:100F50000A128A11B8260A128A1170088312031322
:100F6000AF006430F0000030F1007908F300780839
:100F7000F2000A128A11E7250A128A1170088312F8
:100F80000313AE000A30F0000030F1002E08FA0022
:100F9000FB017A08F2007B08F3000A128A1111277C
:100FA0000A128A11700883120313AD000A30F00090
:100FB0000030F1002E08FA00FB017A08F2007B08ED
:100FC000F3000A128A11B8260A128A1170088312D5
:100FD0000313AC00080083132C30FD000530FE0025
:100FE000B130FF00203084000A128A11C1250A1294
:100FF0008A11B201B301B40183010A128A11652E6C
:08400000FF3FFF3FFF3FFF3FC0
:02400E00FB3F76
:00000001FF
