:060000000A128A110E280D
:10000800FE00030EF2000A08F3007F08F4000A124B
:100018008A1124280A128A1111288313583084005F
:1000280070300A128A1590260A128A118316031351
:10003800A001A101A201A30183010A128A11E62BE2
:10004800F501831203139F192A282B2835281F1A14
:100058002E282F2835289F1A322833283528F501CD
:10006800F50A7508F000F00EF00DF00D0C0870069A
:10007800BF3970068C000C0EF100F10C710C0139BF
:10008800003A03194828492863281E08F000F1019E
:100098007008F100F0017008EE007108EF00831697
:1000A80003131E08831203136E07F0006F0803186A
:1000B8006F0AF1007008EE007108EF000C13F601EA
:1000C8009F1D6728682872281F1A6B286C287228B9
:1000D8009F1A6F2870287228F601F60A7608F00031
:1000E800F00EF00DF00D0C087006BF3970068C008C
:1000F8000C0EF100F10C710C0139003A0319852836
:100108008628A0281E08F000F1017008F100F0010F
:100118007008EC007108ED00831603131E088312A3
:1001280003136C07F0006D0803186D0AF1007008DE
:10013800EC007108ED000C13F7019F19A428A528FD
:10014800AF281F1EA828A928AF289F1AAC28AD28B9
:10015800AF28F701F70A7708F000F00EF00DF00D60
:100168000C087006BF3970068C000C0EF100F10CFB
:10017800710C0139003A0319C228C328DD281E086A
:10018800F000F1017008F100F0017008EA00710850
:10019800EB00831603131E08831203136A07F0008B
:1001A8006B0803186B0AF1007008EA007108EB008D
:1001B8000C13F8019F1DE128E228EC281F1EE528F2
:1001C800E628EC289F1AE928EA28EC28F801F80A1A
:1001D8007808F000F00EF00DF00D0C087006BF392D
:1001E80070068C000C0EF100F10C710C0139003A0C
:1001F8000319FF2800291A291E08F000F1017008C8
:10020800F100F0017008E8007108E9008316031393
:100218001E08831203136807F00069080318690AA7
:10022800F1007008E8007108E9000C13F9019F1942
:100238001E291F2929291F1A2229232929299F1EF6
:10024800262927292929F901F90A7908F000F00E49
:10025800F00DF00D0C087006BF3970068C000C0EFE
:10026800F100F10C710C0139003A03193C293D29C0
:1002780057291E08F000F1017008F100F00170081C
:10028800E6007108E700831603131E0883120313A0
:100298006607F00067080318670AF1007008E600AF
:1002A8007108E7000C13FA019F1D5B295C29662978
:1002B8001F1A5F29602966299F1E632964296629F8
:1002C800FA01FA0A7A08F000F00EF00DF00D0C08A9
:1002D8007006BF3970068C000C0EF100F10C710C21
:1002E8000139003A031979297A2994291E08F0005E
:1002F800F1017008F100F0017008E4007108E500F0
:10030800831603131E08831203136407F00065089D
:100318000318650AF1007008E4007108E5000C1381
:10032800FB019F1998299929A3291F1E9C299D29FA
:10033800A3299F1EA029A129A329FB01FB0A7B0849
:10034800F000F00EF00DF00D0C087006BF397006C5
:100358008C000C0EF100F10C710C0139003A0319F4
:10036800B629B729D1291E08F000F1017008F1005B
:10037800F0017008E2007108E300831603131E08F9
:10038800831203136207F00063080318630AF1007D
:100398007008E2007108E3000C13FC019F1DD529C9
:1003A800D629E0291F1ED929DA29E0299F1EDD292F
:1003B800DE29E029FC01FC0A7C08F000F00EF00DB3
:1003C800F00D0C087006BF3970068C000C0EF10099
:1003D800F10C710C0139003A0319F329F4290E2A9A
:1003E8001E08F000F1017008F100F0017008E0004B
:1003F8007108E100831603131E08831203136007B4
:10040800F00061080318610AF1007008E000710843
:10041800E1000C137408FF0073088A00720E830051
:10042800FE0E7E0E09008312031335088039BF00C3
:100438003508B6003607C600B41F232A242A252A01
:10044800461446080319292A2A2A3A2A460A031D65
:100458002E2A2F2A372A0030B5000030B400003089
:10046800B3000030B200B417B501422A0030B5001D
:100478000030B4000030B3000030B20031088039D9
:10048800FF007F08BF063108B6003607C700B01F57
:100498004E2A4F2A502A471447080319542A552A26
:1004A800652A470A031D592A5A2A622A0030B100D0
:1004B8000030B0000030AF000030AE00B017B1011E
:1004C8006D2A0030B1000030B0000030AF000030BD
:1004D800AE00310830042F042E04031D742A752A37
:1004E8008E2A0030B5000030B4000030B300003070
:1004F800B2008030B4047F30B5043F08FF007F08A5
:10050800B5043508B1003408B0003308AF0032082C
:10051800AE00E52B4608031D922A932A9C2A003038
:10052800B1000030B0000030AF000030AE00E52B65
:100538004608B600B7013708B90047083602B800C0
:10054800031CB90338087F3EC00039080318013E70
:10055800003EC1003508BE003408BD003308BC00A9
:100568003208BB000030B5000030B4000030B300E2
:100578000030B2000030C5000030C4000030C300B5
:100588000030C200C701122B47080319CC2ACD2A14
:10059800ED2A0130B6000310BB0DBC0DBD0DBE0D1C
:1005A800B60BCF2A0130B6000310B20DB30DB40D4F
:1005B800B50DB60BD82AC51FE22AE32AE42A32145D
:1005C8000130B6000310C20DC30DC40DC50DB60B26
:1005D800E62A31083E02031DFB2A30083D02031DAE
:1005E800FB2A2F083C02031DFB2A2E083B02031C92
:1005F800FE2AFF2A0E2B45172E08BB022F08031CC4
:100608002F0FBC023008031C300FBD023108031C39
:10061800310FBE020130FF007F08C7071A304702BA
:10062800031C172B182BC82A3E083D043C043B0426
:1006380003191F2B202B3F2B42143F2B0130B600F0
:100648000310B20DB30DB40DB50DB60B242BC51F99
:100658002E2B2F2B302B32140130B6000310C20D75
:10066800C30DC40DC50DB60B322BFF30C0070318E0
:10067800C10AFF30C107B41F422B432B222BC701ED
:10068800C51F472B482B642BFF304205B600FF30AF
:100698004305B700FF304405B8007F304505B90071
:1006A800390838043704360403195B2B5C2B5F2B9D
:1006B800C701C70A642B321C622B632B642B5C2B8B
:1006C80047080319682B692B9A2B0130B2070030B1
:1006D80003180130B307003003180130B4070030A5
:1006E80003180130B507351C7A2B7B2B9A2B32085F
:1006F800B6003308B7003408B8003508B90001302F
:10070800BA00390DB90CB80CB70CB60CBA0B852B5E
:100718003908B5003808B4003708B3003608B20005
:100728000130C0070318C10A0030C1074108803AE8
:10073800FF0080307F02031DA32BFF304002031C03
:10074800A62BA72BB52BFF3083120313C000003054
:10075800C1000030B5000030B4000030B3000030F4
:10076800B200831203134108803AFF0080307F02F1
:10077800031DC02B013040020318C32BC42BD12BFF
:1007880083120313C001C1010030B5000030B4006A
:100798000030B3000030B200BF01831203134008D9
:1007A800C600461CD82BD92BDB2BB417DF2B7F3088
:1007B800FF007F08B4054608B6000310360CB500E4
:1007C800812A08000A128A1588260A128A110A1232
:1007D8008A1598260A128A110A128A15A6260A125A
:1007E8008A1136300A128A1122270A128A118312B4
:1007F80003132108D3002008D2005208A000530890
:10080800A1000030A11BFF30A200A30001300A1292
:100818008A11F0250A128A11831203132308B500DE
:100828002208B4002108B3002008B2004030B1000B
:100838000230B000F130AF00AA30AE000A128A11BF
:1008480017220A128A11831203133108CB003008C9
:10085800CA002F08C9002E08C8000A128A11AA2641
:100868000A128A11831203134908D3004808D200D8
:100878003A300A128A1122270A128A1183120313A4
:100888002108D5002008D4005408A0005508A1006C
:100898000030A11BFF30A200A30001300A128A1108
:1008A800F0250A128A11831203132308B5002208BF
:1008B800B4002108B3002008B2004030B100023073
:1008C800B000F130AF00AA30AE000A128A11172228
:1008D8000A128A11831203133108CB003008CA00A8
:1008E8002F08C9002E08C8000A128A11AA260A125F
:1008F8008A11831203134908D5004808D4008030B0
:100908000A128A1518270A128A1112308312031341
:10091800A4008030A5000A128A15E9260A128A1155
:10092800831203135308BA005208B9000A128A1135
:10093800E2270A128A110B3083120313A4008030B5
:10094800A5000A128A15E9260A128A1183120313CE
:100958005508BA005408B9000A128A11E2270A1287
:100968008A1132300A128A1122270A128A11831236
:1009780003132108D7002008D6005608A0005708FE
:10098800A1000030A11BFF30A200A30001300A1211
:100998008A11F0250A128A11831203132308B5005D
:1009A8002208B4002108B3002008B2004030B1008A
:1009B8000230B000F130AF00AA30AE000A128A113E
:1009C80017220A128A11831203133108CB00300848
:1009D800CA002F08C9002E08C8000A128A11AA26C0
:1009E8000A128A11831203134908D7004808D6004F
:1009F800C0300A128A1518270A128A111830831271
:100A08000313A4008030A5000A128A15E9260A12E9
:100A18008A11831203135708BA005608B9000A123C
:100A28008A11E2270A128A11F52B0A128A110E2856
:100A380083120313B7002D30B200DB2D25303806A2
:100A48000319272D282D322D3708840038088313E1
:100A580080000130FF007F08B707DB2DB3010130AC
:100A6800AC07FF302C0784000A128A119C270A124F
:100A78008A11B800003A0319EB2D643A0319482D7E
:100A88000D3A0319482DDB2D320884008313000822
:100A9800B500840A0008B6000230FF007F08B207DC
:100AA800B61F572D582D612D0330FF007F08B30462
:100AB800B509B609B50A0319B60AB801B80A38085B
:100AC800AF002F07013E84000A128A119C270A12E0
:100AD8008A11B0000A128A119C270A128A11B100E1
:100AE80031083602031D7A2D3008350203187D2D92
:100AF8007E2D7F2D892D0130FF007F08B807053036
:100B08003806031D882D892D632D330803390319F1
:100B18008E2D8F2D982D370884002D30831380005B
:100B28000130FF007F08B7073808B400D22D0A301B
:100B3800A7000030A8003408AF002F07013E84004A
:100B48000A128A119C270A128A11A0000A128A1115
:100B58009C270A128A11A1003608A3003508A200B2
:100B68000A128A15BA270A128A1183120313210856
:100B7800AA002008A9000A128A157E270A128A11DB
:100B8800831203132708303EB8003708840038085A
:100B9800831380000130FF007F08B707FF30FF0094
:100BA8007F08B407340A031DDA2DDB2D9B2D013095
:100BB800AC07FF302C0784000A128A119C270A12FE
:100BC8008A11B8003808031DEA2DEB2D222D3708AD
:100BD800840083138001080083120313A8002808E7
:100BE8000319F72DF82D0C2EA31FFB2DFC2D0C2E11
:100BF8002009AA002109AB002209AC002309AD0095
:100C0800AA0A0319AB0A0319AC0A0319AD0A142E70
:100C18002308AD002208AC002108AB002008AA0078
:100C28002308220421042004031D1B2E1C2E252E1C
:100C38000030A3000030A2000030A1000030A00066
:100C4800A92E9630A900352E0130FF007F08A9078C
:100C580001300310AD0CAC0CAB0CAA0CFF3E031D0D
:100C68002D2EFE302D05031D3A2E3B2E282E572EF5
:100C78000130FF007F08A9070130AA0700300318D8
:100C88000130AB07003003180130AC0700300318FF
:100C98000130AD0701300310AD0CAC0CAB0CAA0C45
:100CA800FF3E031D4F2EFF302D05031D5C2E5D2ECC
:100CB8003C2E692E0130A9020130A4000310AA0DB0
:100CC800AB0DAC0DAD0DA40B622EAC1B6C2E6D2EB6
:100CD800732E023029020318722E732E5E2E2918E5
:100CE800762E772E7F2EFF30AA05FF30AB057F309A
:100CF800AC05FF30AD050310A90C2908A400A50117
:100D0800A601A70118300310A40DA50DA60DA70D67
:100D1800FF3E031D872E2408AA042508AB042608D5
:100D2800AC042708AD04280803199B2E9C2EA12E7D
:100D3800A31F9F2EA02EA12EAD172D08A3002C08AF
:100D4800A2002B08A1002A08A000080003108312A3
:100D580003134A0D4B0DD1005108031DB42EB52EB7
:100D6800BE2E0030CB000030CA000030C900003071
:100D7800C800212F4808CC004908CD004A08CE00F9
:100D88004B08CF001F300310CF0CCE0CCD0CCC0C71
:100D9800FF3E031DC72E4C08D000CA17FF30C805F8
:100DA800FF30C905FF30CA050030CB059630D102A7
:100DB800D11FDF2EE02EFA2E5108803A973E0318F5
:100DC800E62EE72EE82EB52E01300310CB0CCA0C08
:100DD800C90CC80CFF3E031DE92E0130FF007F0837
:100DE800D107031DF82EF92EE82E112F20305102BD
:100DF800031CFF2E002F0C2FB52E0130CC00031042
:100E0800C80DC90DCA0DCB0DCC0B032F0130D10273
:100E18005108031D102F112F012F50080319152FEA
:100E2800162F212FC809C909CA09CB09C80A0319ED
:100E3800C90A0319CA0A0319CB0A08008312031343
:100E4800A40024081E3A031D2A2F2B2F322F4530C9
:100E58009F006F08A3006E08A2008D2F2408223A75
:100E6800031D372F382F3F2F4D309F006D08A300EB
:100E78006C08A2008D2F2408263A031D442F452F05
:100E88004C2F55309F006B08A3006A08A2008D2FD5
:100E980024082A3A031D512F522F592F5D309F00E5
:100EA8006908A3006808A2008D2F24082E3A031DA4
:100EB8005E2F5F2F662F65309F006708A3006608C6
:100EC800A2008D2F2408323A031D6B2F6C2F732F2D
:100ED8006D309F006508A3006408A2008D2F2408C8
:100EE800363A031D782F792F802F75309F006308BD
:100EF800A3006208A2008D2F24083A3A031D852F0B
:100F0800862F8D2F7D309F006108A3006008A20006
:100F18008D2F2308A1002208A0000800FF1B9C2F8A
:100F280083137F1883170008840A0319FF0A08002F
:100F380007308A000408840A820700340134003428
:100F48000A34003464340034E83403341034273469
:100F580020345434313420343D3420340034543473
:100F6800303420343D342034003454343234203486
:100F78003D342034003441344E343034003441346C
:100F88004E343134003441344E3432340034413438
:100F98004E343334003441344E3434340034413424
:100FA8004E343534003441344E3436340034413410
:100FB8004E34373400342534643400343E308312E0
:100FC8000313AC003A08AE003908AD003B300A12F2
:100FD8008A111C250A128A113B3083120313A400BC
:100FE8000030A5000A128A15E9260A128A1108009B
:101D1000831603138601FF308500FF308900080019
:101D200064008001840A0406031900340406912E1D
:101D30008B170B17831603130C17413083120313F1
:101D40009F008030831603139F00080002300A12A0
:101D50008A1518270A128A1528300A128A15182798
:101D60000A128A150C300A128A1518270A128A15C7
:101D700004300A128A1518270A128A1501300A122D
:101D80008A1518270A128A150800831203132008DF
:101D9000A2002108A300D22E0130A2070318A30A33
:101DA0000030A3072308FF00220884000A128A11CA
:101DB00092270A128A15003A031DDF2EE02ECC2E40
:101DC00020082202A0002108031C210A2302A100EE
:101DD0000800831203132408A0002508A1000A129A
:101DE0008A15C5260A128A15831203132008A60035
:101DF000A701112F27082407840025080318250AA6
:101E0000FF000A128A1192270A128A150A128A15ED
:101E10004B270A128A150130FF007F088312031333
:101E2000A70726082702031C162F172FFA2E0800D3
:101E300083120313A2002208F039860006158610CB
:101E400006100D3083120313A100FB30A000A00B7D
:101E5000272FA10B272F8312031306112208A0009E
:101E600003300310A00DFF3E031D312F0310200D82
:101E7000F03986000615861006100D308312031304
:101E8000A100FB30A000A00B432FA10B432F831216
:101E900003130611080083120313A2002208F0396D
:101EA00086000615861006140D3083120313A10058
:101EB000FB30A000A00B5A2FA10B5A2F8312031343
:101EC00006112208A00003300310A00DFF3E031DE1
:101ED000642F0310200DF0398600061586100614B5
:101EE0000D3083120313A100FB30A000A00B762F4E
:101EF000A10B762F8312031306110800831203131C
:101F0000270828040319852F862FB52FAB01AB0AAC
:101F1000942F01300310A70DA80DFF3E031D8A2F3B
:101F20000130FF007F08AB07A81F972F982F892F3C
:101F300028082A02031D9E2F27082902031CA12F0F
:101F4000A22FA82F2708A9022808031CAA03AA0267
:101F500001300310A80CA70CFF3E031DA92F013070
:101F6000AB02031DB42FB52F982F2A08A80029080B
:101F7000A700080083120313A401A501200821046F
:101F80000319C32FC42FFB2FA601A60AD22F01309D
:101F90000310A00DA10DFF3E031DC82F0130FF004F
:101FA0007F08A607A11FD52FD62FC72F01300310FA
:101FB000A40DA50DFF3E031DD72F21082302031DED
:101FC000E32F20082202031CE62FE72FEE2F200824
:101FD000A2022108031CA303A3022414013003104E
:101FE000A10CA00CFF3E031DEF2F0130A602031D24
:101FF000FA2FFB2FD62F2508A1002408A0000800E7
:08400000FF3FFF3FFF3FFF3FC0
:02400E00FB3F76
:00000001FF
