:060000000A128A1110280B
:10000800FE00030EF8000408F9000A08FA007F0849
:10001800FB000A128A1128280A128A11132883134E
:100028003B30FD000230FE00E930FF002F30840035
:100038000A128A11DA220A128A11C101FC01FD0191
:1000480083010A128A11842A0B1D2B282C28BE280A
:1000580004307D02031C312832283328FD017D0835
:10006800031D3728382854280030F000F1000130EB
:10007800F2000030F3000130F4000030F5000130E8
:10008800F6000030F7000A128A11BF220A128A11FC
:10009800831203133F082F3E840083130008860051
:1000A8007D03031D5828592875280130F0000030B9
:1000B800F1000030F200F3000130F4000030F500E8
:1000C8000130F6000030F7000A128A11BF220A1226
:1000D8008A11831203133E082F3E840083130008FD
:1000E800860002307D06031D7A287B289728013078
:1000F800F0000030F1000130F2000030F300003071
:10010800F400F5000130F6000030F7000A128A11F9
:10011800BF220A128A11831203133C082F3E84005F
:1001280083130008860003307D06031D9C289D2844
:10013800B9280130F0000030F1000130F200003041
:10014800F3000130F4000030F5000030F600F7004D
:100158000A128A11BF220A128A11831203133B085A
:100168002F3E84008313000886000130FF007F08BB
:10017800FD070B117B08FF007A088A0079088400C4
:10018800780E8300FE0E7E0E09006430831203137E
:10019800A0000030A1002908A3002808A2000A1224
:1001A8008A1102220A128A11831203132008C0003E
:1001B8000A30A0000030A1004008AA00AB012A08BC
:1001C800A2002B08A3000A128A113E210A128A11E2
:1001D800831203132008BF000A30A0000030A100DA
:1001E8004008AA00AB012A08A2002B08A3000A12A3
:1001F8008A11A7210A128A11831203132008BE004C
:100208006430A0000030A1002908A3002808A2003B
:100218000A128A1148220A128A118312031320082B
:10022800BD000A30A0000030A1003D08AA00AB01C3
:100238002A08A2002B08A3000A128A113E210A12DA
:100248008A11831203132008BC000A30A000003072
:10025800A1003D08AA00AB012A08A2002B08A300B0
:100268000A128A11A7210A128A118312031320087D
:10027800BB00080083120313A501A11F44294529C7
:100288004C29A009A109A00A0319A10AA501A50AD8
:10029800A31F4F2950295929A209A309A20A031902
:1002A800A30A0130FF007F08A506A601A7012008C0
:1002B80021040319602961299829A401A40A6F2936
:1002C80001300310A00DA10DFF3E031D652901306B
:1002D800FF007F08A407A11F722973296429013030
:1002E8000310A60DA70DFF3E031D74292108230244
:1002F800031D802920082202031C832984298B29B5
:100308002008A2022108031CA303A302261401301B
:100318000310A10CA00CFF3E031D8C290130A40280
:10032800031D972998297329250803199C299D29B4
:10033800A229A609A709A60A0319A70A2708A1003E
:100348002608A000080083120313A501A31FAD29E6
:10035800AE29B529A209A309A20A0319A30AA5016E
:10036800A50AA11FB829B929BE29A009A109A00A6F
:100378000319A10A200821040319C329C429F32950
:10038800A401A40AD22901300310A00DA10DFF3E3B
:10039800031DC8290130FF007F08A407A11FD52924
:1003A800D629C72921082302031DDC292008220297
:1003B800031CDF29E029E6292008A2022108031CE2
:1003C800A303A30201300310A10CA00CFF3E031DE0
:1003D800E7290130A402031DF229F329D6292508AB
:1003E8000319F729F829FD29A209A309A20A031963
:1003F800A30A2308A1002208A000080083120313FF
:10040800A401A5012008210403190B2A0C2A432A58
:10041800A601A60A1A2A01300310A00DA10DFF3E5D
:10042800031D102A0130FF007F08A607A11F1D2AFF
:100438001E2A0F2A01300310A40DA50DFF3E031D2F
:100448001F2A21082302031D2B2A20082202031C2D
:100458002E2A2F2A362A2008A2022108031CA303C9
:10046800A302241401300310A10CA00CFF3E031DAD
:10047800372A0130A602031D422A432A1E2A2508CC
:10048800A1002408A00008008312031320082104F7
:1004980003194F2A502A7F2AA401A40A5E2A013090
:1004A8000310A00DA10DFF3E031D542A0130FF00CB
:1004B8007F08A407A11F612A622A532A2108230260
:1004C800031D682A20082202031C6B2A6C2A722A40
:1004D8002008A2022108031CA303A3020130031071
:1004E800A10CA00CFF3E031D732A0130A402031DBA
:1004F8007E2A7F2A622A2308A1002208A000080079
:100508000A128A1101230A128A110A128A11F52283
:100518000A128A11831203133A08A9003908A8009D
:100528000A128A11C9200A128A1101308312031390
:10053800B9070318BA0A0030BA0727303A02103050
:1005480003193902031CA92AAA2AAC2AB901BA013B
:100558001A3083120313AE005E30AD006D30AC006C
:10056800AC0BB42AAD0BB42AAE0BB42ABB2A8E2A24
:100578000A128A111028700C83120313031C071027
:1005880003180714720C031C871003188714740CC3
:10059800031C071103180715760C031C8711031891
:1005A800871508007E088A007F0882000A128A11CF
:1005B800D6220A128A118000840A04087D060319CB
:1005C8000034FF0A0319FE0ADA2A3F3406345B3482
:1005D8004F3466346D347D3407347F346F34FC34E3
:1005E80026348B170B178B160730831603138100DD
:1005F8003B3083120313810008008316031386011E
:0C0608008701831203138701860108009C
:08400000FF3FFF3FFF3FFF3FC0
:02400E00FB3F76
:00000001FF
